{
  "_format": "hh-sol-artifact-1",
  "contractName": "LitheumERC20",
  "sourceName": "contracts/LitheumERC20.sol",
  "abi": [
    {
      "inputs": [
        {
          "internalType": "string",
          "name": "name_",
          "type": "string"
        },
        {
          "internalType": "string",
          "name": "symbol_",
          "type": "string"
        },
        {
          "internalType": "address",
          "name": "owner_",
          "type": "address"
        }
      ],
      "stateMutability": "nonpayable",
      "type": "constructor"
    },
    {
      "inputs": [
        {
          "internalType": "address",
          "name": "spender",
          "type": "address"
        },
        {
          "internalType": "uint256",
          "name": "allowance",
          "type": "uint256"
        },
        {
          "internalType": "uint256",
          "name": "needed",
          "type": "uint256"
        }
      ],
      "name": "ERC20InsufficientAllowance",
      "type": "error"
    },
    {
      "inputs": [
        {
          "internalType": "address",
          "name": "sender",
          "type": "address"
        },
        {
          "internalType": "uint256",
          "name": "balance",
          "type": "uint256"
        },
        {
          "internalType": "uint256",
          "name": "needed",
          "type": "uint256"
        }
      ],
      "name": "ERC20InsufficientBalance",
      "type": "error"
    },
    {
      "inputs": [
        {
          "internalType": "address",
          "name": "approver",
          "type": "address"
        }
      ],
      "name": "ERC20InvalidApprover",
      "type": "error"
    },
    {
      "inputs": [
        {
          "internalType": "address",
          "name": "receiver",
          "type": "address"
        }
      ],
      "name": "ERC20InvalidReceiver",
      "type": "error"
    },
    {
      "inputs": [
        {
          "internalType": "address",
          "name": "sender",
          "type": "address"
        }
      ],
      "name": "ERC20InvalidSender",
      "type": "error"
    },
    {
      "inputs": [
        {
          "internalType": "address",
          "name": "spender",
          "type": "address"
        }
      ],
      "name": "ERC20InvalidSpender",
      "type": "error"
    },
    {
      "anonymous": false,
      "inputs": [
        {
          "indexed": true,
          "internalType": "address",
          "name": "owner",
          "type": "address"
        },
        {
          "indexed": true,
          "internalType": "address",
          "name": "spender",
          "type": "address"
        },
        {
          "indexed": false,
          "internalType": "uint256",
          "name": "value",
          "type": "uint256"
        }
      ],
      "name": "Approval",
      "type": "event"
    },
    {
      "anonymous": false,
      "inputs": [
        {
          "indexed": false,
          "internalType": "address",
          "name": "from",
          "type": "address"
        },
        {
          "indexed": false,
          "internalType": "uint256",
          "name": "amount",
          "type": "uint256"
        },
        {
          "indexed": false,
          "internalType": "bytes",
          "name": "data",
          "type": "bytes"
        }
      ],
      "name": "Burned",
      "type": "event"
    },
    {
      "anonymous": false,
      "inputs": [
        {
          "indexed": true,
          "internalType": "address",
          "name": "from",
          "type": "address"
        },
        {
          "indexed": true,
          "internalType": "address",
          "name": "to",
          "type": "address"
        },
        {
          "indexed": false,
          "internalType": "uint256",
          "name": "value",
          "type": "uint256"
        }
      ],
      "name": "Transfer",
      "type": "event"
    },
    {
      "inputs": [
        {
          "internalType": "address",
          "name": "owner",
          "type": "address"
        },
        {
          "internalType": "address",
          "name": "spender",
          "type": "address"
        }
      ],
      "name": "allowance",
      "outputs": [
        {
          "internalType": "uint256",
          "name": "",
          "type": "uint256"
        }
      ],
      "stateMutability": "view",
      "type": "function"
    },
    {
      "inputs": [
        {
          "internalType": "address",
          "name": "spender",
          "type": "address"
        },
        {
          "internalType": "uint256",
          "name": "value",
          "type": "uint256"
        }
      ],
      "name": "approve",
      "outputs": [
        {
          "internalType": "bool",
          "name": "",
          "type": "bool"
        }
      ],
      "stateMutability": "nonpayable",
      "type": "function"
    },
    {
      "inputs": [
        {
          "internalType": "address",
          "name": "account",
          "type": "address"
        }
      ],
      "name": "balanceOf",
      "outputs": [
        {
          "internalType": "uint256",
          "name": "",
          "type": "uint256"
        }
      ],
      "stateMutability": "view",
      "type": "function"
    },
    {
      "inputs": [
        {
          "internalType": "uint256",
          "name": "amount",
          "type": "uint256"
        },
        {
          "internalType": "bytes",
          "name": "data",
          "type": "bytes"
        }
      ],
      "name": "burn",
      "outputs": [],
      "stateMutability": "nonpayable",
      "type": "function"
    },
    {
      "inputs": [],
      "name": "decimals",
      "outputs": [
        {
          "internalType": "uint8",
          "name": "",
          "type": "uint8"
        }
      ],
      "stateMutability": "view",
      "type": "function"
    },
    {
      "inputs": [
        {
          "internalType": "uint256",
          "name": "amount",
          "type": "uint256"
        }
      ],
      "name": "mint",
      "outputs": [],
      "stateMutability": "nonpayable",
      "type": "function"
    },
    {
      "inputs": [
        {
          "internalType": "uint256",
          "name": "amount",
          "type": "uint256"
        }
      ],
      "name": "mintToPresale",
      "outputs": [],
      "stateMutability": "nonpayable",
      "type": "function"
    },
    {
      "inputs": [
        {
          "internalType": "uint256",
          "name": "amount",
          "type": "uint256"
        }
      ],
      "name": "mintToPrivate",
      "outputs": [],
      "stateMutability": "nonpayable",
      "type": "function"
    },
    {
      "inputs": [],
      "name": "name",
      "outputs": [
        {
          "internalType": "string",
          "name": "",
          "type": "string"
        }
      ],
      "stateMutability": "view",
      "type": "function"
    },
    {
      "inputs": [
        {
          "internalType": "address",
          "name": "LitheumPresaleBCOERC20Address_",
          "type": "address"
        }
      ],
      "name": "setLitheumPresaleBCOERC20Address",
      "outputs": [],
      "stateMutability": "nonpayable",
      "type": "function"
    },
    {
      "inputs": [
        {
          "internalType": "address",
          "name": "LitheumPrivateBCOERC20Address_",
          "type": "address"
        }
      ],
      "name": "setLitheumPrivateBCOERC20Address",
      "outputs": [],
      "stateMutability": "nonpayable",
      "type": "function"
    },
    {
      "inputs": [],
      "name": "symbol",
      "outputs": [
        {
          "internalType": "string",
          "name": "",
          "type": "string"
        }
      ],
      "stateMutability": "view",
      "type": "function"
    },
    {
      "inputs": [],
      "name": "totalSupply",
      "outputs": [
        {
          "internalType": "uint256",
          "name": "",
          "type": "uint256"
        }
      ],
      "stateMutability": "view",
      "type": "function"
    },
    {
      "inputs": [],
      "name": "totalSupply_",
      "outputs": [
        {
          "internalType": "uint256",
          "name": "",
          "type": "uint256"
        }
      ],
      "stateMutability": "view",
      "type": "function"
    },
    {
      "inputs": [
        {
          "internalType": "address",
          "name": "to",
          "type": "address"
        },
        {
          "internalType": "uint256",
          "name": "value",
          "type": "uint256"
        }
      ],
      "name": "transfer",
      "outputs": [
        {
          "internalType": "bool",
          "name": "",
          "type": "bool"
        }
      ],
      "stateMutability": "nonpayable",
      "type": "function"
    },
    {
      "inputs": [
        {
          "internalType": "address",
          "name": "from",
          "type": "address"
        },
        {
          "internalType": "address",
          "name": "to",
          "type": "address"
        },
        {
          "internalType": "uint256",
          "name": "value",
          "type": "uint256"
        }
      ],
      "name": "transferFrom",
      "outputs": [
        {
          "internalType": "bool",
          "name": "",
          "type": "bool"
        }
      ],
      "stateMutability": "nonpayable",
      "type": "function"
    }
  ],
  "bytecode": "0x60806040526000600760146101000a81548160ff0219169083151502179055506b1027e72f1f128130880000006008553480156200003c57600080fd5b50604051620023713803806200237183398181016040528101906200006291906200033e565b8282816003908162000075919062000623565b50806004908162000087919062000623565b505050600073ffffffffffffffffffffffffffffffffffffffff168173ffffffffffffffffffffffffffffffffffffffff1603620000fc576040517f08c379a0000000000000000000000000000000000000000000000000000000008152600401620000f390620007b7565b60405180910390fd5b80600560006101000a81548173ffffffffffffffffffffffffffffffffffffffff021916908373ffffffffffffffffffffffffffffffffffffffff160217905550505050620007d9565b6000604051905090565b600080fd5b600080fd5b600080fd5b600080fd5b6000601f19601f8301169050919050565b7f4e487b7100000000000000000000000000000000000000000000000000000000600052604160045260246000fd5b620001af8262000164565b810181811067ffffffffffffffff82111715620001d157620001d062000175565b5b80604052505050565b6000620001e662000146565b9050620001f48282620001a4565b919050565b600067ffffffffffffffff82111562000217576200021662000175565b5b620002228262000164565b9050602081019050919050565b60005b838110156200024f57808201518184015260208101905062000232565b60008484015250505050565b6000620002726200026c84620001f9565b620001da565b9050828152602081018484840111156200029157620002906200015f565b5b6200029e8482856200022f565b509392505050565b600082601f830112620002be57620002bd6200015a565b5b8151620002d08482602086016200025b565b91505092915050565b600073ffffffffffffffffffffffffffffffffffffffff82169050919050565b60006200030682620002d9565b9050919050565b6200031881620002f9565b81146200032457600080fd5b50565b60008151905062000338816200030d565b92915050565b6000806000606084860312156200035a576200035962000150565b5b600084015167ffffffffffffffff8111156200037b576200037a62000155565b5b6200038986828701620002a6565b935050602084015167ffffffffffffffff811115620003ad57620003ac62000155565b5b620003bb86828701620002a6565b9250506040620003ce8682870162000327565b9150509250925092565b600081519050919050565b7f4e487b7100000000000000000000000000000000000000000000000000000000600052602260045260246000fd5b600060028204905060018216806200042b57607f821691505b602082108103620004415762000440620003e3565b5b50919050565b60008190508160005260206000209050919050565b60006020601f8301049050919050565b600082821b905092915050565b600060088302620004ab7fffffffffffffffffffffffffffffffffffffffffffffffffffffffffffffffff826200046c565b620004b786836200046c565b95508019841693508086168417925050509392505050565b6000819050919050565b6000819050919050565b600062000504620004fe620004f884620004cf565b620004d9565b620004cf565b9050919050565b6000819050919050565b6200052083620004e3565b620005386200052f826200050b565b84845462000479565b825550505050565b600090565b6200054f62000540565b6200055c81848462000515565b505050565b5b8181101562000584576200057860008262000545565b60018101905062000562565b5050565b601f821115620005d3576200059d8162000447565b620005a8846200045c565b81016020851015620005b8578190505b620005d0620005c7856200045c565b83018262000561565b50505b505050565b600082821c905092915050565b6000620005f860001984600802620005d8565b1980831691505092915050565b6000620006138383620005e5565b9150826002028217905092915050565b6200062e82620003d8565b67ffffffffffffffff8111156200064a576200064962000175565b5b62000656825462000412565b6200066382828562000588565b600060209050601f8311600181146200069b576000841562000686578287015190505b62000692858262000605565b86555062000702565b601f198416620006ab8662000447565b60005b82811015620006d557848901518255600182019150602085019450602081019050620006ae565b86831015620006f55784890151620006f1601f891682620005e5565b8355505b6001600288020188555050505b505050505050565b600082825260208201905092915050565b7f6f776e657220616464726573732063616e6e6f742062652073657420746f207a60008201527f65726f2c2065637265636f7665722072657475726e73207a65726f206f6e206560208201527f72726f7200000000000000000000000000000000000000000000000000000000604082015250565b60006200079f6044836200070a565b9150620007ac826200071b565b606082019050919050565b60006020820190508181036000830152620007d28162000790565b9050919050565b611b8880620007e96000396000f3fe608060405234801561001057600080fd5b50600436106101005760003560e01c80638a66a77b11610097578063a9059cbb11610066578063a9059cbb1461029b578063c6b0cf32146102cb578063dd62ed3e146102e7578063fe9d93031461031757610100565b80638a66a77b1461022957806395d89b41146102455780639b18666a14610263578063a0712d681461027f57610100565b8063313ce567116100d3578063313ce567146101a1578063324536eb146101bf5780633b8d37cd146101dd57806370a08231146101f957610100565b806306fdde0314610105578063095ea7b31461012357806318160ddd1461015357806323b872dd14610171575b600080fd5b61010d610333565b60405161011a9190611326565b60405180910390f35b61013d600480360381019061013891906113f0565b6103c5565b60405161014a919061144b565b60405180910390f35b61015b6103e8565b6040516101689190611475565b60405180910390f35b61018b60048036038101906101869190611490565b6103f2565b604051610198919061144b565b60405180910390f35b6101a9610421565b6040516101b691906114ff565b60405180910390f35b6101c761042a565b6040516101d49190611475565b60405180910390f35b6101f760048036038101906101f2919061151a565b610430565b005b610213600480360381019061020e919061151a565b610504565b6040516102209190611475565b60405180910390f35b610243600480360381019061023e9190611547565b61054c565b005b61024d6106f5565b60405161025a9190611326565b60405180910390f35b61027d6004803603810190610278919061151a565b610787565b005b61029960048036038101906102949190611547565b61085b565b005b6102b560048036038101906102b091906113f0565b610951565b6040516102c2919061144b565b60405180910390f35b6102e560048036038101906102e09190611547565b610974565b005b61030160048036038101906102fc9190611574565b610b1d565b60405161030e9190611475565b60405180910390f35b610331600480360381019061032c91906116e9565b610ba4565b005b60606003805461034290611774565b80601f016020809104026020016040519081016040528092919081815260200182805461036e90611774565b80156103bb5780601f10610390576101008083540402835291602001916103bb565b820191906000526020600020905b81548152906001019060200180831161039e57829003601f168201915b5050505050905090565b6000806103d0610bf4565b90506103dd818585610bfc565b600191505092915050565b6000600254905090565b6000806103fd610bf4565b905061040a858285610c0e565b610415858585610ca2565b60019150509392505050565b60006012905090565b60085481565b600560009054906101000a900473ffffffffffffffffffffffffffffffffffffffff1673ffffffffffffffffffffffffffffffffffffffff163373ffffffffffffffffffffffffffffffffffffffff16146104c0576040517f08c379a00000000000000000000000000000000000000000000000000000000081526004016104b7906117f1565b60405180910390fd5b80600760006101000a81548173ffffffffffffffffffffffffffffffffffffffff021916908373ffffffffffffffffffffffffffffffffffffffff16021790555050565b60008060008373ffffffffffffffffffffffffffffffffffffffff1673ffffffffffffffffffffffffffffffffffffffff168152602001908152602001600020549050919050565b600560009054906101000a900473ffffffffffffffffffffffffffffffffffffffff1673ffffffffffffffffffffffffffffffffffffffff163373ffffffffffffffffffffffffffffffffffffffff16146105dc576040517f08c379a00000000000000000000000000000000000000000000000000000000081526004016105d3906117f1565b60405180910390fd5b600073ffffffffffffffffffffffffffffffffffffffff16600660009054906101000a900473ffffffffffffffffffffffffffffffffffffffff1673ffffffffffffffffffffffffffffffffffffffff160361066d576040517f08c379a000000000000000000000000000000000000000000000000000000000815260040161066490611883565b60405180910390fd5b6008548111156106b2576040517f08c379a00000000000000000000000000000000000000000000000000000000081526004016106a990611915565b60405180910390fd5b806008546106c09190611964565b6008819055506106f2600660009054906101000a900473ffffffffffffffffffffffffffffffffffffffff1682610d96565b50565b60606004805461070490611774565b80601f016020809104026020016040519081016040528092919081815260200182805461073090611774565b801561077d5780601f106107525761010080835404028352916020019161077d565b820191906000526020600020905b81548152906001019060200180831161076057829003601f168201915b5050505050905090565b600560009054906101000a900473ffffffffffffffffffffffffffffffffffffffff1673ffffffffffffffffffffffffffffffffffffffff163373ffffffffffffffffffffffffffffffffffffffff1614610817576040517f08c379a000000000000000000000000000000000000000000000000000000000815260040161080e906117f1565b60405180910390fd5b80600660006101000a81548173ffffffffffffffffffffffffffffffffffffffff021916908373ffffffffffffffffffffffffffffffffffffffff16021790555050565b600560009054906101000a900473ffffffffffffffffffffffffffffffffffffffff1673ffffffffffffffffffffffffffffffffffffffff163373ffffffffffffffffffffffffffffffffffffffff16146108eb576040517f08c379a00000000000000000000000000000000000000000000000000000000081526004016108e2906117f1565b60405180910390fd5b600854811115610930576040517f08c379a000000000000000000000000000000000000000000000000000000000815260040161092790611915565b60405180910390fd5b8060085461093e9190611964565b60088190555061094e3382610d96565b50565b60008061095c610bf4565b9050610969818585610ca2565b600191505092915050565b600560009054906101000a900473ffffffffffffffffffffffffffffffffffffffff1673ffffffffffffffffffffffffffffffffffffffff163373ffffffffffffffffffffffffffffffffffffffff1614610a04576040517f08c379a00000000000000000000000000000000000000000000000000000000081526004016109fb906117f1565b60405180910390fd5b600073ffffffffffffffffffffffffffffffffffffffff16600760009054906101000a900473ffffffffffffffffffffffffffffffffffffffff1673ffffffffffffffffffffffffffffffffffffffff1603610a95576040517f08c379a0000000000000000000000000000000000000000000000000000000008152600401610a8c90611a0a565b60405180910390fd5b600854811115610ada576040517f08c379a0000000000000000000000000000000000000000000000000000000008152600401610ad190611915565b60405180910390fd5b80600854610ae89190611964565b600881905550610b1a600760009054906101000a900473ffffffffffffffffffffffffffffffffffffffff1682610d96565b50565b6000600160008473ffffffffffffffffffffffffffffffffffffffff1673ffffffffffffffffffffffffffffffffffffffff16815260200190815260200160002060008373ffffffffffffffffffffffffffffffffffffffff1673ffffffffffffffffffffffffffffffffffffffff16815260200190815260200160002054905092915050565b610bb5610baf610bf4565b83610e18565b7f1b0d1df39b95c18450406c31aa7c3c3fbafc15e3904d5994501abd24956f1cd3338383604051610be893929190611a8e565b60405180910390a15050565b600033905090565b610c098383836001610e9a565b505050565b6000610c1a8484610b1d565b90507fffffffffffffffffffffffffffffffffffffffffffffffffffffffffffffffff8114610c9c5781811015610c8c578281836040517ffb8f41b2000000000000000000000000000000000000000000000000000000008152600401610c8393929190611acc565b60405180910390fd5b610c9b84848484036000610e9a565b5b50505050565b600073ffffffffffffffffffffffffffffffffffffffff168373ffffffffffffffffffffffffffffffffffffffff1603610d145760006040517f96c6fd1e000000000000000000000000000000000000000000000000000000008152600401610d0b9190611b03565b60405180910390fd5b600073ffffffffffffffffffffffffffffffffffffffff168273ffffffffffffffffffffffffffffffffffffffff1603610d865760006040517fec442f05000000000000000000000000000000000000000000000000000000008152600401610d7d9190611b03565b60405180910390fd5b610d91838383611071565b505050565b600073ffffffffffffffffffffffffffffffffffffffff168273ffffffffffffffffffffffffffffffffffffffff1603610e085760006040517fec442f05000000000000000000000000000000000000000000000000000000008152600401610dff9190611b03565b60405180910390fd5b610e1460008383611071565b5050565b600073ffffffffffffffffffffffffffffffffffffffff168273ffffffffffffffffffffffffffffffffffffffff1603610e8a5760006040517f96c6fd1e000000000000000000000000000000000000000000000000000000008152600401610e819190611b03565b60405180910390fd5b610e9682600083611071565b5050565b600073ffffffffffffffffffffffffffffffffffffffff168473ffffffffffffffffffffffffffffffffffffffff1603610f0c5760006040517fe602df05000000000000000000000000000000000000000000000000000000008152600401610f039190611b03565b60405180910390fd5b600073ffffffffffffffffffffffffffffffffffffffff168373ffffffffffffffffffffffffffffffffffffffff1603610f7e5760006040517f94280d62000000000000000000000000000000000000000000000000000000008152600401610f759190611b03565b60405180910390fd5b81600160008673ffffffffffffffffffffffffffffffffffffffff1673ffffffffffffffffffffffffffffffffffffffff16815260200190815260200160002060008573ffffffffffffffffffffffffffffffffffffffff1673ffffffffffffffffffffffffffffffffffffffff16815260200190815260200160002081905550801561106b578273ffffffffffffffffffffffffffffffffffffffff168473ffffffffffffffffffffffffffffffffffffffff167f8c5be1e5ebec7d5bd14f71427d1e84f3dd0314c0f7b2291e5b200ac8c7c3b925846040516110629190611475565b60405180910390a35b50505050565b600073ffffffffffffffffffffffffffffffffffffffff168373ffffffffffffffffffffffffffffffffffffffff16036110c35780600260008282546110b79190611b1e565b92505081905550611196565b60008060008573ffffffffffffffffffffffffffffffffffffffff1673ffffffffffffffffffffffffffffffffffffffff1681526020019081526020016000205490508181101561114f578381836040517fe450d38c00000000000000000000000000000000000000000000000000000000815260040161114693929190611acc565b60405180910390fd5b8181036000808673ffffffffffffffffffffffffffffffffffffffff1673ffffffffffffffffffffffffffffffffffffffff16815260200190815260200160002081905550505b600073ffffffffffffffffffffffffffffffffffffffff168273ffffffffffffffffffffffffffffffffffffffff16036111df578060026000828254039250508190555061122c565b806000808473ffffffffffffffffffffffffffffffffffffffff1673ffffffffffffffffffffffffffffffffffffffff168152602001908152602001600020600082825401925050819055505b8173ffffffffffffffffffffffffffffffffffffffff168373ffffffffffffffffffffffffffffffffffffffff167fddf252ad1be2c89b69c2b068fc378daa952ba7f163c4a11628f55a4df523b3ef836040516112899190611475565b60405180910390a3505050565b600081519050919050565b600082825260208201905092915050565b60005b838110156112d05780820151818401526020810190506112b5565b60008484015250505050565b6000601f19601f8301169050919050565b60006112f882611296565b61130281856112a1565b93506113128185602086016112b2565b61131b816112dc565b840191505092915050565b6000602082019050818103600083015261134081846112ed565b905092915050565b6000604051905090565b600080fd5b600080fd5b600073ffffffffffffffffffffffffffffffffffffffff82169050919050565b60006113878261135c565b9050919050565b6113978161137c565b81146113a257600080fd5b50565b6000813590506113b48161138e565b92915050565b6000819050919050565b6113cd816113ba565b81146113d857600080fd5b50565b6000813590506113ea816113c4565b92915050565b6000806040838503121561140757611406611352565b5b6000611415858286016113a5565b9250506020611426858286016113db565b9150509250929050565b60008115159050919050565b61144581611430565b82525050565b6000602082019050611460600083018461143c565b92915050565b61146f816113ba565b82525050565b600060208201905061148a6000830184611466565b92915050565b6000806000606084860312156114a9576114a8611352565b5b60006114b7868287016113a5565b93505060206114c8868287016113a5565b92505060406114d9868287016113db565b9150509250925092565b600060ff82169050919050565b6114f9816114e3565b82525050565b600060208201905061151460008301846114f0565b92915050565b6000602082840312156115305761152f611352565b5b600061153e848285016113a5565b91505092915050565b60006020828403121561155d5761155c611352565b5b600061156b848285016113db565b91505092915050565b6000806040838503121561158b5761158a611352565b5b6000611599858286016113a5565b92505060206115aa858286016113a5565b9150509250929050565b600080fd5b600080fd5b7f4e487b7100000000000000000000000000000000000000000000000000000000600052604160045260246000fd5b6115f6826112dc565b810181811067ffffffffffffffff82111715611615576116146115be565b5b80604052505050565b6000611628611348565b905061163482826115ed565b919050565b600067ffffffffffffffff821115611654576116536115be565b5b61165d826112dc565b9050602081019050919050565b82818337600083830152505050565b600061168c61168784611639565b61161e565b9050828152602081018484840111156116a8576116a76115b9565b5b6116b384828561166a565b509392505050565b600082601f8301126116d0576116cf6115b4565b5b81356116e0848260208601611679565b91505092915050565b60008060408385031215611700576116ff611352565b5b600061170e858286016113db565b925050602083013567ffffffffffffffff81111561172f5761172e611357565b5b61173b858286016116bb565b9150509250929050565b7f4e487b7100000000000000000000000000000000000000000000000000000000600052602260045260246000fd5b6000600282049050600182168061178c57607f821691505b60208210810361179f5761179e611745565b5b50919050565b7f4d757374206265206f776e657200000000000000000000000000000000000000600082015250565b60006117db600d836112a1565b91506117e6826117a5565b602082019050919050565b6000602082019050818103600083015261180a816117ce565b9050919050565b7f4c69746865756d50726573616c6542434f455243323041646472657373206e6f60008201527f7420736574000000000000000000000000000000000000000000000000000000602082015250565b600061186d6025836112a1565b915061187882611811565b604082019050919050565b6000602082019050818103600083015261189c81611860565b9050919050565b7f43616e6e6f74206d696e74206d6f7265207468616e20746f74616c207375707060008201527f6c79000000000000000000000000000000000000000000000000000000000000602082015250565b60006118ff6022836112a1565b915061190a826118a3565b604082019050919050565b6000602082019050818103600083015261192e816118f2565b9050919050565b7f4e487b7100000000000000000000000000000000000000000000000000000000600052601160045260246000fd5b600061196f826113ba565b915061197a836113ba565b925082820390508181111561199257611991611935565b5b92915050565b7f4c69746865756d5072697661746542434f455243323041646472657373206e6f60008201527f7420736574000000000000000000000000000000000000000000000000000000602082015250565b60006119f46025836112a1565b91506119ff82611998565b604082019050919050565b60006020820190508181036000830152611a23816119e7565b9050919050565b611a338161137c565b82525050565b600081519050919050565b600082825260208201905092915050565b6000611a6082611a39565b611a6a8185611a44565b9350611a7a8185602086016112b2565b611a83816112dc565b840191505092915050565b6000606082019050611aa36000830186611a2a565b611ab06020830185611466565b8181036040830152611ac28184611a55565b9050949350505050565b6000606082019050611ae16000830186611a2a565b611aee6020830185611466565b611afb6040830184611466565b949350505050565b6000602082019050611b186000830184611a2a565b92915050565b6000611b29826113ba565b9150611b34836113ba565b9250828201905080821115611b4c57611b4b611935565b5b9291505056fea2646970667358221220eb0897f50f83084ab585ba77819b16885a8219428754dc6ae5fa205010ef54f264736f6c63430008180033",
  "linkReferences": {},
  "deployedLinkReferences": {}
}